:020000040800F2
:10000000C00600204D020008E91A00081D1900086A
:10001000E51A000845040008451F0008000000001C
:100020000000000000000000000000005D1B000850
:100030004904000800000000591B0008B51B000817
:1000400067020008670200086702000867020008EC
:1000500067020008670200086702000867020008DC
:1000600067020008670200086702000867020008CC
:1000700067020008670200086702000867020008BC
:1000800067020008670200086702000867020008AC
:10009000670200086702000867020008670200089C
:1000A000670200086702000867020008670200088C
:1000B000670200086702000867020008670200087C
:1000C000670200086702000867020008670200086C
:1000D000670200086702000867020008670200085C
:1000E000670200086702000867020008670200084C
:1000F000670200086702000867020008670200083C
:10010000670200086702000867020008670200082B
:10011000670200086702000867020008670200081B
:10012000670200086702000867020008670200080B
:1001300067020008670200086702000867020008FB
:1001400067020008670200086702000867020008EB
:1001500067020008670200086702000867020008DB
:1001600067020008670200086702000867020008CB
:10017000670200086702000867020008000000002C
:1001800067020008670200086702000867020008AB
:10019000670200086702000867020008670200089B
:1001A00000000000000000006702000800F002F8F4
:1001B00000F03CF80AA090E8000C82448344AAF1C5
:1001C0000107DA4501D100F031F8AFF2090EBAE8C3
:1001D0000F0013F0010F18BFFB1A43F0010318477B
:1001E0008C1E0000AC1E0000103A24BF78C878C1F5
:1001F000FAD8520724BF30C830C144BF04680C602D
:10020000704700000023002400250026103A28BF74
:1002100078C1FBD8520728BF30C148BF0B60704778
:100220001FB501F00DFF1FBD10B510BD00F0D0F8D7
:100230001146FFF7F5FF01F0CFFE00F0EEF803B432
:10024000FFF7F2FF03BC00F0F5F800000948804713
:1002500009480047FEE7FEE7FEE7FEE7FEE7FEE7A8
:10026000FEE7FEE7FEE7FEE704480549054A064BC0
:1002700070470000891C0008AD010008C000002084
:10028000C0060020C0020020C002002053EA020C79
:1002900000F069802DE9F04B4FF00006002B1FBFE6
:1002A000B3FA83F503FA05F424FA05F65E4012BFAB
:1002B0001643B2FA82F502FA05F4C5F120051EBF15
:1002C00022FA05FC44EA0C04203556EA044C4FEAB5
:1002D000144418BF641C4FF000084FF0000990420E
:1002E00071EB030C39D3002919BFB1FA81F701FA78
:1002F00007F6B0FA80F700FA07F6C7F120071EBF2D
:1003000020FA07FC46EA0C062037B6FBF4FCA7EB04
:100310000507103F07F01F0BCBF120062CFA06F65D
:100320000CFA0BFB44BFB3460026202FA4BF5E4649
:100330004FF0000B5BEA060C08BF4FF0010B19EB06
:100340000B0948EB0608ABFB027C06FB02CC0BFB5F
:1003500003CCC01B71EB0C01C1E70B4602464146C2
:100360004846BDE8F08B13B5084318BF4FF0FF3087
:100370000146AFF30080BDE81C4070474FF000021B
:1003800000B5134694469646203922BFA0E80C508B
:10039000A0E80C50B1F12001BFF4F7AF090728BF66
:1003A000A0E80C5048BF0CC05DF804EB890028BFE2
:1003B00040F8042B08BF704748BF20F8022B11F00B
:1003C000804F18BF00F8012B704770477047704787
:1003D000754600F02BF8AE4605006946534620F0FE
:1003E0000700854618B020B5FFF73EFFBDE8204066
:1003F0004FF000064FF000074FF000084FF0000BE1
:10040000AC46ACE8C009ACE8C009ACE8C009ACE84F
:10041000C00921F007018D46704710B50446AFF3BF
:1004200000802046BDE81040FFF709BF0048704734
:100430001000002001491820ABBEFEE72600020094
:1004400070470000FFE7FEE77047000072B6FFE765
:10045000FEE7000090B00F900E9100200C900B90E2
:100460000A900D90FFE70D980F2800F2E881FFE752
:100470000D99012088400C900E9800680C99084056
:100480000B900B980C99884240F0D481FFE70E98AE
:10049000406800F00300012807D0FFE70E9840688D
:1004A00000F0030002282FD1FFE70F9880680A9020
:1004B0000D984100032000FA01F10A9888430A9040
:1004C0000E98C0680D99490000FA01F10A98084396
:1004D0000A900A980F9988600F9840680A900D99C1
:1004E000012000FA01F10A9888430A900E984068AA
:1004F000C0F300100D9900FA01F10A9808430A9020
:100500000A980F994860FFE70E98406800F00300D2
:10051000032818D0FFE70F98C0680A900D98410093
:10052000032000FA01F10A9888430A900E98806827
:100530000D99490000FA01F10A9808430A900A98B7
:100540000F99C860FFE70E98406800F0030002288A
:1005500026D1FFE70F980D996FF0030202EA5101CF
:100560000844006A0A900D9800F0070081000F20EF
:1005700000FA01F10A9888430A900E9800690D99D3
:1005800001F00701890000FA01F10A9808430A9076
:100590000A980F990D9B02EA530211440862FFE783
:1005A0000F9800680A900D984100032000FA01F1AD
:1005B0000A9888430A900E98406800F003000D994D
:1005C000490000FA01F10A9808430A900A980F9925
:1005D00008600E9880798007002800F02A81FFE7E4
:1005E000FFE70020099043F64400C4F202000168CE
:1005F00041F480410160006800F48040099009984E
:10060000FFE70D9820F0030043F60801C4F2010152
:1006100040580A900D9800F0030081000F2000FA66
:1006200001F10A9888430A900F980021C4F2020150
:10063000884203D1FFE7002008907AE00F9840F24B
:100640000041C4F20201884203D1FFE70120079074
:100650006CE00F9840F60001C4F20201884203D119
:10066000FFE7022006905EE00F9840F60041C4F2DA
:100670000201884203D1FFE70320059050E00F9864
:1006800041F20001C4F20201884203D1FFE70420D5
:10069000049042E00F9841F20041C4F20201884206
:1006A00003D1FFE70520039034E00F9841F60001E5
:1006B000C4F20201884203D1FFE70620029026E03F
:1006C0000F9841F60041C4F20201884203D1FFE7CE
:1006D0000720019018E00F9842F20001C4F20201D5
:1006E000884203D1FFE7082000900AE00F9942F208
:1006F0000042C4F202020A20914208BF0920009081
:10070000FFE700980190FFE701980290FFE7029849
:100710000390FFE703980490FFE704980590FFE734
:1007200005980690FFE706980790FFE7079808905E
:10073000FFE70898C0B20D9901F00301890000FAA3
:1007400001F10A9808430A900A980D9921F00301D3
:1007500043F60802C4F20102885043F60840C4F28E
:10076000010000680A900B990A9888430A900E9835
:100770008079C006002805D5FFE70B990A98084341
:100780000A90FFE70A9843F60841C4F201010860A5
:1007900043F60C40C4F2010000680A900B990A98D5
:1007A00088430A900E9880798006002805D5FFE7D7
:1007B0000B990A9808430A90FFE70A9843F60C4100
:1007C000C4F20101086043F60440C4F2010000686D
:1007D0000A900B990A9888430A900E9880798007AE
:1007E000002805D5FFE70B990A9808430A90FFE710
:1007F0000A9843F60441C4F20101086043F6004040
:10080000C4F2010000680A900B990A9888430A9084
:100810000E988079C00728B1FFE70B990A98084322
:100820000A90FFE70A9843F60041C4F2010108600C
:10083000FFE7FFE7FFE70D9801300D9013E610B0DA
:100840007047000082B00190ADF802108DF80120D1
:100850009DF8010028B1FFE7BDF802000199886109
:1008600005E0BDF80200000401998861FFE702B0CD
:100870007047000040F2B800C2F200000068704704
:1008800040F20400C2F20000027840F2B801C2F265
:1008900000010868104408607047000080B543F606
:1008A0000041C4F20201086840F400700860086862
:1008B00040F480600860086840F48070086003209D
:1008C00000F080F80F2000F005F800F03BF8002061
:1008D00080BD000080B582B0009040F20000C2F2FE
:1008E0000000006840F20401C2F200010A784FF4EF
:1008F0007A71B1FBF2F1B0FBF1F000F0D1FD20B163
:10090000FFE701208DF8070018E000980F280DD8A8
:10091000FFE700994FF0FF30002200F039F800980F
:1009200040F20801C2F20001086003E001208DF8E6
:10093000070003E000208DF80700FFE79DF807009F
:1009400002B080BD82B0FFE70020019043F6440072
:10095000C4F20200016841F480410160006800F4C3
:10096000804001900198FFE7FFE70020009043F6E8
:100970004000C4F20200016841F08051016000684B
:1009800000F0805000900098FFE702B07047000030
:1009900080B586B08DF81700049103920020029074
:1009A00001F0D2FA02909DF9170001900298049983
:1009B000039A01F09BF80146019801F0CDFA06B0C8
:1009C00080BD000080B582B00190019801F0E6FA88
:1009D00002B080BD80B584B000200290FFE7002007
:1009E000019043F64000C4F20200016841F08051DA
:1009F0000160006800F0805001900198FFE74021FD
:100A0000C4F20E2101200860FFF734FF0290FFE7D7
:100A100047F20400C4F20000006800F48030B0F532
:100A2000803F0DD0FFE7FFF725FF0299401AB0F590
:100A30007A7F04D9FFE703208DF80F0025E0E7E770
:100A40004421C4F20E2101200860FFF713FF029039
:100A5000FFE747F20400C4F20000006800F4003031
:100A6000B0F5003F0DD0FFE7FFF704FF0299401AF1
:100A7000B0F57A7F04D9FFE703208DF80F0004E07A
:100A8000E7E700208DF80F00FFE79DF80F0004B0A6
:100A900080BD000080B584B002900191029820B919
:100AA000FFE701208DF80F0021E1019843F6004196
:100AB000C4F20201096801F00F01884212D9FFE770
:100AC000019943F60040C4F202000170006800F092
:100AD0000F000199884204D0FFE701208DF80F0034
:100AE00005E1FFE702980078800700282AD5FFE794
:100AF000029800784007002809D5FFE743F608016F
:100B0000C4F20201086840F4E0500860FFE7029870
:100B100000780007002809D5FFE743F60801C4F272
:100B20000201086840F460400860FFE743F60801EE
:100B3000C4F20201086820F0F000029A92681043A3
:100B40000860FFE702980078C00700286ED0FFE732
:100B500002984068012811D1FFE743F60000C4F273
:100B60000200006800F400310020B0EB514F04D1C6
:100B7000FFE701208DF80F00B9E02CE002984068F3
:100B8000022805D0FFE702984068032811D1FFE74B
:100B900043F60000C4F20200006800F0007100207B
:100BA000B0EB516F04D1FFE701208DF80F009EE0FC
:100BB00010E043F60000C4F20200006800F00201F9
:100BC0000020B0EB510F04D1FFE701208DF80F009A
:100BD0008DE0FFE7FFE743F60801C4F20201086871
:100BE00020F00300029A526810430860FFF742FEAB
:100BF0000090FFE743F60800C4F20200006800F02E
:100C00000C0002994968B0EB810F0ED0FFE7FFF7A7
:100C100031FE0099401A41F28931884204D3FFE73E
:100C200003208DF80F0062E0E4E7FFE7019843F648
:100C30000041C4F20201096801F00F01884212D29A
:100C4000FFE7019943F60040C4F20200017000681A
:100C500000F00F000199884204D0FFE701208DF8D1
:100C60000F0044E0FFE702980078400700280CD509
:100C7000FFE743F60801C4F20201086820F4E050DF
:100C8000029AD26810430860FFE7029800780007D4
:100C900000280DD5FFE743F60801C4F202010868F9
:100CA00020F46040029A126940EAC2000860FFE73F
:100CB00000F022F843F60801C4F202010968C9B243
:100CC0000A0942F25A01C0F60001895CC84040F2AC
:100CD0000001C2F20001086040F20800C2F2000008
:100CE0000068FFF7F7FD00208DF80F00FFE79DF883
:100CF0000F0004B080BD000080B586B000200590D4
:100D000004900390029043F60800C4F202000068C9
:100D100000F00C000146019140B1FFE70198042862
:100D20000AD0FFE7019808280CD04FE042F20040BB
:100D3000C0F2F40002904FE047F64000C0F27D1090
:100D4000029049E043F60400C4F20200016801F099
:100D50003F01059100684002002813D5FFE743F6E4
:100D60000400C4F202000068C0F3881047F6400196
:100D7000C0F27D11A0FB0101059A0023FFF786FA5E
:100D8000049012E043F60400C4F202000068C0F3CD
:100D9000881042F20041C0F2F401A0FB0101059A63
:100DA0000023FFF773FA0490FFE743F60400C4F250
:100DB0000200006800F44031022000EBD1300390C3
:100DC00004980399B0FBF1F0029005E042F2004074
:100DD000C0F2F4000290FFE7029806B080BD000068
:100DE00080B586B00490049820B9FFE701208DF803
:100DF000170050E304980078C007002800F0A58091
:100E0000FFE743F60800C4F20200006800F00C009F
:100E1000042813D0FFE743F60800C4F2020000687C
:100E200000F00C0008281ED1FFE743F60400C4F2CE
:100E3000020000684002002815D5FFE743F60000D5
:100E4000C4F20200006800F400310020B0EB514F02
:100E500008D0FFE70498406820B9FFE701208DF82B
:100E6000170018E370E0FFE704984068B0F5803F92
:100E700009D1FFE743F60001C4F20201086840F41B
:100E80008030086020E004984068B0F5A02F0DD1B4
:100E9000FFE743F60001C4F20201086840F4802035
:100EA0000860086840F4803008600CE043F60001F8
:100EB000C4F20201086820F480300860086820F459
:100EC00080200860FFE7FFE7FFE704984068E8B18B
:100ED000FFE7FFF7CFFC0390FFE743F60000C4F203
:100EE0000200006800F400310020B0EB514F0CD13B
:100EF000FFE7FFF7BFFC0399401A652804D3FFE71B
:100F000003208DF81700C6E2E7E71CE0FFF7B2FC0C
:100F10000390FFE743F60000C4F20200006800F40B
:100F200000310020B0EB514F0CD0FFE7FFF7A2FCDF
:100F30000399401A652804D3FFE703208DF81700B2
:100F4000A9E2E7E7FFE7FFE7FFE7049800788007FB
:100F5000002840F19680FFE743F60800C4F2020043
:100F6000006810F00C0F13D0FFE743F60800C4F23E
:100F70000200006800F00C0008282CD1FFE743F6BF
:100F80000400C4F2020000684002002823D4FFE7F6
:100F900043F60000C4F20200006800F002010020E5
:100FA000B0EB510F09D0FFE70498C068012804D0C6
:100FB000FFE701208DF817006DE243F60001C4F24F
:100FC0000201086820F0F800049A126940EAC200A1
:100FD0000860FFE754E00498C06870B3FFE70021A1
:100FE000C4F2472101200860FFF744FC0390FFE7AB
:100FF00043F60000C4F20200006800F00201002085
:10100000B0EB510F0CD1FFE7FFF734FC0399401A06
:10101000032804D3FFE703208DF817003BE2E7E73E
:1010200043F60001C4F20201086820F0F800049AB7
:10103000126940EAC200086021E00021C4F24721A1
:1010400000200860FFF716FC0390FFE743F600005E
:10105000C4F20200006800F002010020B0EB510F62
:101060000CD0FFE7FFF706FC0399401A032804D3CE
:10107000FFE703208DF817000DE2E7E7FFE7FFE742
:10108000FFE704980078000700284BD5FFE7049895
:10109000406918B3FFE740F68061C4F247210120A0
:1010A0000860FFF7E7FB0390FFE743F67400C4F224
:1010B0000200006800F002010020B0EB510F0CD1DB
:1010C000FFE7FFF7D7FB0399401A032804D3FFE794
:1010D00003208DF81700DEE1E7E722E040F68061AB
:1010E000C4F2472100200860FFF7C4FB0390FFE72C
:1010F00043F67400C4F20200006800F00201002010
:10110000B0EB510F0CD0FFE7FFF7B4FB0399401A87
:10111000032804D3FFE703208DF81700BBE1E7E7BE
:10112000FFE7FFE7049800784007002840F1CE80F1
:10113000FFE700208DF8070043F64000C4F20200EC
:101140000068C000002815D4FFE7FFE700200090EA
:1011500043F64000C4F20200016841F08051016092
:10116000006800F0805000900098FFE701208DF8A3
:101170000700FFE747F20000C4F200000068C00566
:10118000002822D4FFE747F20001C4F200010868FA
:1011900040F480700860FFF76DFB0390FFE747F2B3
:1011A0000000C4F200000068C00500280CD4FFE76E
:1011B000FFF760FB0399401A032804D3FFE70320DD
:1011C0008DF8170067E1EAE7FFE7FFE7049880681A
:1011D000012809D1FFE743F67001C4F20201086853
:1011E00040F0010008601FE00498806805280DD1D8
:1011F000FFE743F67001C4F20201086840F0040002
:101200000860086840F0010008600CE043F67001D7
:10121000C4F20201086820F001000860086820F0AC
:1012200004000860FFE7FFE7FFE704988068F8B173
:10123000FFE7FFF71FFB0390FFE743F67000C4F2E0
:101240000200006800F002010020B0EB510F0ED147
:10125000FFE7FFF70FFB0399401A41F289318842FB
:1012600004D3FFE703208DF8170014E1E5E71EE043
:10127000FFF700FB0390FFE743F67000C4F20200A3
:10128000006800F002010020B0EB510F0ED0FFE724
:10129000FFF7F0FA0399401A41F28931884204D3EA
:1012A000FFE703208DF81700F5E0E5E7FFE79DF87D
:1012B0000700012809D1FFE743F64001C4F202010B
:1012C000086820F080500860FFE7FFE70498806915
:1012D000002800F0DC80FFE743F60800C4F20200BB
:1012E000006800F00C00082800F08580FFE70498F3
:1012F000806902285CD1FFE76021C4F24721002009
:101300000860FFF7B7FA0390FFE743F60000C4F266
:101310000200006800F000710020B0EB516F0CD0AB
:10132000FFE7FFF7A7FA0399401A032804D3FFE762
:1013300003208DF81700AEE0E7E70499C869D1F8FB
:1013400020C04B6A8A6A40EA0C0040EA8310D2034C
:101350004FF6FF739A43A2F580321043C96A40EA00
:10136000016043F60401C4F2020108606021C4F286
:10137000472101200860FFF77DFA0390FFE743F65D
:101380000000C4F20200006800F000710020B0EB21
:10139000516F0CD1FFE7FFF76DFA0399401A03284C
:1013A00004D3FFE703208DF8170074E0E7E721E09E
:1013B0006021C4F2472100200860FFF75BFA039028
:1013C000FFE743F60000C4F20200006800F000717D
:1013D0000020B0EB516F0CD0FFE7FFF74BFA0399F9
:1013E000401A032804D3FFE703208DF8170052E0CA
:1013F000E7E7FFE74AE004988069012804D1FFE7A6
:1014000001208DF8170046E043F60400C4F2020004
:101410000068029004988069012831D0FFE70298A3
:1014200000F480000499C969884229D1FFE7029835
:1014300000F03F000499096A884221D1FFE7029831
:1014400047F6C07108400499496AB0EB811F17D173
:10145000FFE7029800F440300499896AC9034FF607
:10146000FF729143A1F58031884209D1FFE70298CC
:1014700000F070600499C96AB0EB016F04D0FFE717
:1014800001208DF8170006E0FFE7FFE7FFE70020E7
:101490008DF81700FFE79DF8170006B080BD00002B
:1014A00080B582B00190019800F05AFB02B080BD77
:1014B00085B003900291FFE7039890F83C00012863
:1014C00004D1FFE702208DF813007EE0039901208C
:1014D00081F83C00FFE7FFE70399022081F83D0017
:1014E0000398006840680190039800688068009045
:1014F000019820F07000019002980168019808435B
:1015000001900198039909684860039800680021D8
:10151000C4F2010188423CD0FFE703980068B0F1B3
:10152000804F36D0FFE70398006840F20041C4F2D4
:10153000000188422DD0FFE70398006840F60001C3
:10154000C4F20001884224D0FFE70398006840F607
:101550000041C4F2000188421BD0FFE703980068F5
:1015600040F20041C4F20101884212D0FFE7039823
:10157000006844F20001C4F20101884209D0FFE78B
:101580000398006841F60001C4F2000188420ED1C0
:10159000FFE7009820F080000090029841680098D2
:1015A000084300900098039909688860FFE7039951
:1015B000012081F83D00FFE70399002081F83C00FD
:1015C000FFE700208DF81300FFE79DF8130005B03A
:1015D0007047000080B582B00090009820B9FFE706
:1015E00001208DF807003FE0009890F83D0040B9D9
:1015F000FFE70099002081F83C00009800F038F8DF
:10160000FFE70099022081F83D00009951F8040B92
:1016100000F044FB0099012081F84600FFE70099A3
:10162000012081F83E00009981F83F00009981F87F
:101630004000009981F84100FFE7FFE70099012091
:1016400081F84200009981F84300009981F8440034
:10165000009981F84500FFE70099012081F83D00DD
:1016600000208DF80700FFE79DF8070002B080BD5D
:1016700082B00190019800680021C4F20101884203
:1016800012D1FFE7FFE70020009043F64400C4F2C8
:101690000200016841F001010160006800F00100F2
:1016A00000900098FFE7FFE702B0704783B0019019
:1016B000019890F83D00012804D0FFE701208DF843
:1016C0000B0064E00199022081F83D000198006858
:1016D0000021C4F2010188423CD0FFE70198006874
:1016E000B0F1804F36D0FFE70198006840F200412A
:1016F000C4F2000188422DD0FFE70198006840F64F
:101700000001C4F20001884224D0FFE7019800687C
:1017100040F60041C4F2000188421BD0FFE7019867
:10172000006840F20041C4F20101884212D0FFE794
:101730000198006844F20001C4F20101884209D016
:10174000FFE70198006841F60001C4F200018842F9
:1017500012D1FFE701980068806800F00700009050
:101760000098062807D0FFE701980168086840F054
:1017700001000860FFE706E001980168086840F092
:1017800001000860FFE700208DF80B00FFE79DF8DF
:101790000B0003B07047000080B586B00490039141
:1017A00000208DF80B00FFE7049890F83C0001281A
:1017B00004D1FFE702208DF81700ABE00499012067
:1017C00081F83C00FFE7FFE70499022081F83D0023
:1017D0000498006880680190019820F077000190DB
:1017E000019820F47F40019001980499096888606D
:1017F000039800680090002872D0FFE70098102836
:101800006ED0FFE7009820286AD0FFE700983028C4
:1018100066D0FFE70098402855D0FFE70098502891
:1018200037D0FFE70098602840D0FFE70098702885
:101830000BD0FFE70098B0F5805F05D0FFE7009878
:10184000B0F5005F16D052E055E004980068039BA5
:101850005A689968DB6800F0F3FA049800688068B9
:101860000190019840F0770001900198049909686F
:10187000886040E004980068039B5A689968DB68B8
:1018800000F0DEFA04980168886840F480408860BF
:1018900031E004980068039A5168D26800F000FBB8
:1018A00004980068502100F0E5FA24E004980068EC
:1018B000039A5168D26800F01BFB0498006860210D
:1018C00000F0D8FA17E004980068039A5168D268CB
:1018D00000F0E6FA04980068402100F0CBFA0AE034
:1018E000049800680399096800F0C4FA03E0012035
:1018F0008DF80B00FFE70499012081F83D00FFE718
:101900000499002081F83C00FFE79DF80B008DF85A
:101910001700FFE79DF8170006B080BDFFE7FEE760
:1019200080B592B00020119010900F900E900D9005
:10193000FFE700200C9043F63000C4F2020001687B
:1019400041F001010160006800F001000C900C986A
:10195000FFE7FFE700200B9043F63000C4F20200DF
:10196000016841F080010160006800F080000B9088
:101970000B98FFE7FFE700200A9043F63000C4F21F
:101980000200016841F002010160006800F00200FD
:101990000A900A98FFE7FFE70020099043F630001D
:1019A000C4F20200016841F010010160006800F01B
:1019B000100009900998FFE7FFE70020089043F620
:1019C0003000C4F20200016841F0200101600068AB
:1019D00000F0200008900898FFE741F20000C4F2F0
:1019E000020002904FF40061019100220592FEF77F
:1019F00029FF059A41F20040C4F2020006904FF41C
:101A000080410391FEF71EFF059804210D910E9071
:101A100002200F9040F20040C4F202000DA907918D
:101A2000FEF718FD019B0298059A07990D93012373
:101A300004930E930F921092FEF70CFDDDF80CC08C
:101A4000049B059A06980799CDF834C00E930F921F
:101A50001092FEF7FFFC12B080BD000080B588B088
:101A60000021009107910691059104910391029143
:101A700040F27000C2F2000001900022C4F20102A4
:101A8000026044F24F624260816042F21072C260B2
:101A9000016141618161FFF79DFD18B1FFE7FEF72C
:101AA000D5FCFFE74FF48050049040F27000C2F282
:101AB000000004A9FFF770FE18B1FFE7FEF7C6FCAF
:101AC000FFE700200290039040F27000C2F2000095
:101AD00002A9FFF7EDFC18B1FFE7FEF7B7FCFFE73F
:101AE00008B080BDFFE7FEE7FFE7FEE788B007909C
:101AF00006910592079800F0070004900498C0F141
:101B00000700052803D3FFE70420019004E00498B0
:101B1000C0F107000190FFE701980390049804309A
:101B2000062803D8FFE70020009003E0049803385C
:101B30000090FFE70098029006980399012202FAAC
:101B400001F101390840029B984005999A40013AF9
:101B50001140084308B0704770470000704700000C
:101B600080B582B0009000980138B0F1807F03D337
:101B7000FFE70120019019E0009801384EF21401AE
:101B8000CEF2000108604FF0FF300F2100F0E4F9C1
:101B90004EF21801CEF20001002008604EF2100251
:101BA000CEF20002072111600190FFE7019802B018
:101BB00080BD000080B5FEF763FE80BD80B594B0A7
:101BC00008A83021FEF7DAFB002007900690059068
:101BD00004900390FFE70020029043F64000C4F217
:101BE0000200016841F080510160006800F08050FF
:101BF00002900298FFE7FFE70020019047F2000003
:101C0000C4F20000016841F440410160006800F442
:101C1000404001900198FFE7012008904FF4803088
:101C2000099002200E904FF480010F910F21109126
:101C3000D821119112900420139008A8FFF7D0F832
:101C400018B1FFE7FEF702FCFFE7FEF7C3FE18B18D
:101C5000FFE7FEF7FBFBFFE70F2003900220049055
:101C6000002005904FF4A05006904FF4805007904C
:101C700003A80521FEF70EFF18B1FFE7FEF7E6FB0C
:101C8000FFE714B080BD00004EF68851CEF200018F
:101C9000086840F4700008607047000083B002904C
:101CA000019102980068009002980021C4F201019D
:101CB000884225D0FFE70298B0F1804F20D0FFE79F
:101CC000029840F20041C4F20001884218D0FFE7B8
:101CD000029840F60001C4F20001884210D0FFE7EC
:101CE000029840F60041C4F20001884208D0FFE7A4
:101CF000029840F20041C4F2010188420AD1FFE794
:101D0000009820F070000090019841680098084306
:101D10000090FFE702980021C4F20101884255D0EB
:101D2000FFE70298B0F1804F50D0FFE7029840F2F1
:101D30000041C4F20001884248D0FFE7029840F613
:101D40000001C4F20001884240D0FFE7029840F64B
:101D50000041C4F20001884238D0FFE7029840F207
:101D60000041C4F20101884230D0FFE7029844F2FA
:101D70000001C4F20101884228D0FFE7029844F232
:101D80000041C4F20101884220D0FFE7029844F6E6
:101D90000001C4F20101884218D0FFE7029841F621
:101DA0000001C4F20001884210D0FFE7029841F61A
:101DB0000041C4F20001884208D0FFE7029842F2D5
:101DC0000001C4F2000188420AD1FFE7009820F424
:101DD000407000900198C168009808430090FFE7A8
:101DE000009820F08000019949690843009001980B
:101DF00080680299C8620198006802998862029816
:101E00000021C4F20101884208D0FFE7029840F2A5
:101E10000041C4F20101884205D1FFE70198006941
:101E200002990863FFE70299086840F0040008601F
:101E300002990120486100980299086003B0704738
:101E400085B00490039102920193049880680090F9
:101E5000009820F47F40009003980299019A41EA8B
:101E6000022101430098084300900098049988607B
:101E700005B0704783B0029001910298806800908D
:101E8000009820F07000009001980099084340F0FD
:101E90000700009000980299886003B07047000026
:101EA00085B00490039102920498006A009004990E
:101EB000086A20F001000862049880690190019886
:101EC00020F0F00001900299019840EA0110019081
:101ED000009820F00A0000900399009808430090B1
:101EE00001980499886100980499086205B07047C8
:101EF00085B00490039102920498006A00900499BE
:101F0000086A20F010000862049880690190019826
:101F100020F4704001900299019840EA013001904C
:101F2000009820F0A00000900399009840EA01106A
:101F3000009001980499886100980499086205B09E
:101F400070470000FFE7FEE74EF60C50CEF20000AF
:101F50000068C0F30220704782B08DF8070000913E
:101F60009DF9070000280AD4FFE7009800019DF9B9
:101F700007104EF20042CEF2000288540BE00098A7
:101F800000019DF8071001F00F014EF61452CEF239
:101F900000028854FFE702B07047000083B002904F
:101FA000029800F0070000904EF60C51CEF20001AE
:101FB0000868019001984FF6FF02104001900198C7
:101FC000009A40EA02200022C0F2FA521043019027
:101FD0000198086003B0704780B582B0002001907E
:101FE000FEF75CFCFFF7EAFDFFF79AFCFFF736FD12
:101FF00040F27000C2F20000FFF758FBFFE740F22A
:102000007001C2F200010868406A0968C96AB0EB51
:10201000510F0AD9FFE741F20000C4F202004FF469
:1020200000610122FEF70EFC09E041F20000C4F25B
:1020300002004FF400610022FEF704FCFFE7DEE738
:10204000F1EE100A4FF6FF71C0F2C03120EA010034
:1020500040F04070E1EE100A704700000000000000
:102060000000010203040607080900009020000890
:102070000000002010000000E8010008A020000877
:1020800010000020B006000004020008000000005C
:102090000024F40001000000100000000000000017
:04000005080001AD41
:00000001FF
